:1000000012C01FC01EC01DC01CC01BC01AC019C01A
:1000100018C017C016C015C014C013C02CC011C022
:1000200010C00FC00EC011241FBECFEDCDBF20E009
:10003000A0E6B0E001C01D92A136B207E1F70CD0F6
:1000400042C0DECF87E286B913B887B1807E836075
:1000500087B9379A369A08958FE08ABB81E085BBCD
:1000600083E083BF8AEA83BB89B7806189BFEADF07
:10007000789412BEFFCF1F920F920FB60F921124E9
:100080008F939F9380916000882341F081E08BBB28
:100090008091600081508093600007C083E08BBB3B
:1000A000809160008F5F8093600084B195B19695D8
:1000B00087959695879583BB9F918F910F900FBEE3
:0A00C0000F901F901895F894FFCFE1
:00000001FF
